:100000000C945E000C9486000C9486000C94860080
:100010000C9486000C9486000C9486000C94860048
:100020000C9486000C9486000C9486000C94860038
:100030000C9486000C9486000C9486000C94860028
:100040000C94E9010C9486000C9486000C948600B4
:100050000C9486000C9486000C9486000C94860008
:100060000C9486000C9486000000000024002700F9
:100070002A0000000000250028002B0004040404CE
:100080000404040402020202020203030303030342
:10009000010204081020408001020408102001021F
:1000A00004081020000000080002010000030407FB
:1000B0000000000000000000E902450311241FBEFB
:1000C000CFEFD8E0DEBFCDBF21E0A6E0B1E001C0B8
:1000D0001D92A932B207E1F711E0A0E0B1E0EAE237
:1000E000F9E002C005900D92A630B107D9F710E0F3
:1000F000CDE5D0E004C02197FE010E945503CC3528
:10010000D107C9F70E9433020C9488040C940000B4
:1001100090E0FC01EC55FF4F2491FC01E057FF4FAC
:100120003491FC01E458FF4FE491EE23B9F122230E
:1001300039F1233091F038F42130A9F0223001F563
:1001400084B58F7D12C0273091F02830A1F0243083
:10015000B9F4809180008F7D03C0809180008F77FB
:10016000809380000DC084B58F7784BD09C08091D5
:10017000B0008F7703C08091B0008F7D8093B00076
:10018000F0E0EE0FFF1FEE58FF4FA591B4918FB72F
:10019000F894EC9130953E233C938FBF0895CF9314
:1001A000DF9390E0FC01E057FF4F2491FC01E458FD
:1001B000FF4F8491882361F190E0880F991FFC0123
:1001C000E859FF4FC591D491FC01EE58FF4FA5911E
:1001D000B491611109C09FB7F8948881209582235A
:1001E0008883EC912E230BC0623061F49FB7F894A2
:1001F0003881822F809583238883EC912E2B2C933A
:100200009FBF06C08FB7F894E8812E2B28838FBF3D
:10021000DF91CF9108953FB7F89480910B019091B1
:100220000C01A0910D01B0910E0126B5A89B05C04F
:100230002F3F19F00196A11DB11D3FBFBA2FA92F65
:10024000982F8827820F911DA11DB11DBC01CD01E2
:1002500042E0660F771F881F991F4A95D1F70895CE
:100260000F931F93CF93DF93CDB7DEB729970FB6C8
:10027000F894DEBF0FBECDBF0E940B0100911E019E
:1002800010911F012091200130912101DC01CB014F
:10029000801B910BA20BB30B8C329140A105B105D1
:1002A00058F3F89480911401909115019A838983F1
:1002B000E0911801F0911901DF0111968081898781
:1002C00090911001E0912201F0912301809124018D
:1002D000992309F42EC09081982B9887908180955E
:1002E00089238F838F818C8388E08B8358856F81EE
:1002F00049853B812C8189819A81508347FD252F37
:100300003A952083262F39F0441F00C000006083F7
:10031000000000C0F2CF38E04D91608300000197EB
:1003200061F7F0932301E093220149873B832C83FB
:1003300038C09081982B98879081809589238F83EE
:100340008F818E8388E08D8358856F8149853D81BB
:100350002E8189819A81508347FD252F00C000C0DE
:10036000208300C000C000C000C000C06083000047
:10037000262F3A9541F0441F000000C000C000C085
:1003800000C000C0E8CF38E04D9100C0608300C0DD
:10039000019709F7F0932301E093220149873D83F8
:1003A0002E839A83898378940E940B0160931E01A7
:1003B00070931F01809320019093210129960FB61D
:1003C000F894DEBF0FBECDBFDF91CF911F910F918B
:1003D00008951F920F920FB60F9211242F933F93FF
:1003E0008F939F93AF93BF938091070190910801E2
:1003F000A0910901B0910A013091060123E0230F79
:100400002D3720F40196A11DB11D05C026E8230F4C
:100410000296A11DB11D20930601809307019093C0
:100420000801A0930901B0930A0180910B019091FA
:100430000C01A0910D01B0910E010196A11DB11DFD
:1004400080930B0190930C01A0930D01B0930E01CA
:10045000BF91AF919F918F913F912F910F900FBEC0
:100460000F901F901895789484B5826084BD84B5F0
:10047000816084BD85B5826085BD85B5816085BD9F
:1004800080916E00816080936E0010928100809157
:1004900081008260809381008091810081608093DF
:1004A0008100809180008160809380008091B10004
:1004B00084608093B1008091B00081608093B0002F
:1004C00080917A00846080937A0080917A008260C3
:1004D00080937A0080917A00816080937A00809185
:1004E0007A00806880937A001092C1008091160192
:1004F00087FD07C061E00E94CF00809116010E9435
:10050000880081E080931101809118019091190178
:10051000892B11F00E94300161E084E00E94CF003D
:1005200084E00E948800C0E0D0E020E0283009F498
:1005300040C0422F50E08091120190911301481762
:100540005907A8F5809117013FEF882321F0839F79
:10055000C0011124392F60911D0170911A01809101
:10056000180190911901671306C043E0249F800D84
:10057000911D11240AC0440F551F440F551F840FAD
:10058000951FFC01E60FF11D108240911A01FC013C
:10059000E40FF11D308330911B01FC01E30FF11DCD
:1005A000108230911C01FC01E30FF11D10822F5FBE
:1005B000BDCF20930F018091180190911901892BD3
:1005C00011F00E943001209709F4AFCF0E94000083
:1005D000ACCF109211011092170110921E011092CF
:1005E0001F01109220011092210110921D01109202
:1005F0001A0181E080931B0192E090931C0180938B
:10060000100188E190E090931501809314010E94FD
:100610005B039093190180931801009761F028E122
:10062000FC0111922A95E9F788E090E0909313017C
:100630008093120108C010921501109214011092BB
:1006400013011092120185E080931601809111012F
:10065000882339F061E085E00E94CF0085E00E94A8
:100660008800E1E8F0E0E491F0E0EE0FFF1FEE58C3
:10067000FF4F859194919093230180932201E5E9A6
:10068000F0E0E491E09324010895809118019091A5
:100690001901009711F00E94F0038091160187FD67
:1006A00003C060E00C94CF000895EE0FFF1F05908B
:1006B000F491E02D0994CF93DF938230910510F4EB
:1006C00082E090E0E0912701F091280120E030E005
:1006D000C0E0D0E0309711F14081518148175907AF
:1006E000C0F04817590761F482819381209719F06F
:1006F0009B838A832BC0909328018093270126C077
:100700002115310519F04217530718F49A01BE015B
:10071000DF01EF010280F381E02DDCCF21153105EF
:1007200009F1281B390B2430310590F412968D9174
:100730009C9113976115710521F0FB0193838283CE
:1007400004C09093280180932701FD01329644C094
:10075000FD01E20FF31F81939193225031092D93F4
:100760003C933AC02091250130912601232B41F47E
:10077000209102013091030130932601209325013D
:1007800020910001309101012115310541F42DB76F
:100790003EB74091040150910501241B350BE091B7
:1007A0002501F0912601E217F307A0F42E1B3F0B61
:1007B0002817390778F0AC014E5F5F4F24173507D3
:1007C00048F04E0F5F1F50932601409325018193FF
:1007D000919302C0E0E0F0E0CF01DF91CF91089566
:1007E0000F931F93CF93DF93009709F48CC0FC0104
:1007F000329713821282009127011091280101156E
:10080000110581F420813181820F931F20912501F0
:10081000309126012817390779F5F0932601E093E6
:10082000250171C0D80140E050E0AE17BF0750F479
:1008300012962D913C911397AD012115310509F1C7
:10084000D901F3CF9D01DA01338322836081718165
:10085000860F971F8217930769F4EC01288139816D
:10086000260F371F2E5F3F4F318320838A819B8164
:1008700093838283452B29F4F0932801E093270189
:1008800042C01396FC93EE931297ED014991599152
:100890009E01240F351FE217F30771F480819181C7
:1008A000840F951F029611969C938E93828193815B
:1008B00013969C938E931297E0E0F0E0D801129685
:1008C0008D919C911397009719F0F8018C01F6CF48
:1008D0008D919C9198012E5F3F4F820F931F209125
:1008E0002501309126012817390769F4309729F43A
:1008F000109228011092270102C0138212821093D5
:10090000260100932501DF91CF911F910F9108954A
:1009100010E0CDE5D0E004C0FE010E945503219611
:0A092000CE35D107C9F7F894FFCFD8
:06092A000000290180001D
:107E0000112484B714BE81FFF0D085E080938100F7
:107E100082E08093C00088E18093C10086E0809377
:107E2000C20080E18093C4008EE0C9D0259A86E02C
:107E300020E33CEF91E0309385002093840096BBD3
:107E4000B09BFECF1D9AA8958150A9F7CC24DD24C4
:107E500088248394B5E0AB2EA1E19A2EF3E0BF2EE7
:107E6000A2D0813461F49FD0082FAFD0023811F036
:107E7000013811F484E001C083E08DD089C08234E0
:107E800011F484E103C0853419F485E0A6D080C0E4
:107E9000853579F488D0E82EFF2485D0082F10E0AE
:107EA000102F00270E291F29000F111F8ED06801E7
:107EB0006FC0863521F484E090D080E0DECF843638
:107EC00009F040C070D06FD0082F6DD080E0C81688
:107ED00080E7D80618F4F601B7BEE895C0E0D1E017
:107EE00062D089930C17E1F7F0E0CF16F0E7DF06D8
:107EF00018F0F601B7BEE89568D007B600FCFDCFD4
:107F0000A601A0E0B1E02C9130E011968C91119780
:107F100090E0982F8827822B932B1296FA010C0160
:107F200087BEE89511244E5F5F4FF1E0A038BF0790
:107F300051F7F601A7BEE89507B600FCFDCF97BE46
:107F4000E89526C08437B1F42ED02DD0F82E2BD052
:107F50003CD0F601EF2C8F010F5F1F4F84911BD097
:107F6000EA94F801C1F70894C11CD11CFA94CF0C13
:107F7000D11C0EC0853739F428D08EE10CD085E9AC
:107F80000AD08FE07ACF813511F488E018D01DD067
:107F900080E101D065CF982F8091C00085FFFCCF94
:107FA0009093C60008958091C00087FFFCCF809118
:107FB000C00084FD01C0A8958091C6000895E0E648
:107FC000F0E098E1908380830895EDDF803219F02E
:107FD00088E0F5DFFFCF84E1DECF1F93182FE3DFCA
:107FE0001150E9F7F2DF1F91089580E0E8DFEE27F6
:047FF000FF270994CA
:027FFE00040479
:0400000300007E007B
:00000001FF
